{
  "_format": "hh-sol-artifact-1",
  "contractName": "WineRegistry",
  "sourceName": "contracts/WinerieData.sol",
  "abi": [
    {
      "inputs": [],
      "stateMutability": "nonpayable",
      "type": "constructor"
    },
    {
      "anonymous": false,
      "inputs": [
        {
          "indexed": false,
          "internalType": "string",
          "name": "name",
          "type": "string"
        },
        {
          "indexed": false,
          "internalType": "string",
          "name": "winerie",
          "type": "string"
        },
        {
          "indexed": false,
          "internalType": "ebool",
          "name": "isOrganic",
          "type": "uint256"
        },
        {
          "indexed": false,
          "internalType": "string",
          "name": "publicData",
          "type": "string"
        }
      ],
      "name": "WineAdded",
      "type": "event"
    },
    {
      "inputs": [
        {
          "internalType": "string",
          "name": "name",
          "type": "string"
        },
        {
          "internalType": "string",
          "name": "winerie",
          "type": "string"
        },
        {
          "internalType": "einput",
          "name": "copperEncrypted",
          "type": "bytes32"
        },
        {
          "internalType": "einput",
          "name": "leadEncrypted",
          "type": "bytes32"
        },
        {
          "internalType": "einput",
          "name": "cadmiumEncrypted",
          "type": "bytes32"
        },
        {
          "internalType": "einput",
          "name": "arsenicEncrypted",
          "type": "bytes32"
        },
        {
          "internalType": "einput",
          "name": "cincEncrypted",
          "type": "bytes32"
        },
        {
          "internalType": "einput",
          "name": "volatileAcidityEncrypted",
          "type": "bytes32"
        },
        {
          "internalType": "string",
          "name": "publicData",
          "type": "string"
        },
        {
          "internalType": "bytes",
          "name": "inputProof",
          "type": "bytes"
        }
      ],
      "name": "addWine",
      "outputs": [],
      "stateMutability": "nonpayable",
      "type": "function"
    },
    {
      "inputs": [
        {
          "internalType": "uint256",
          "name": "",
          "type": "uint256"
        },
        {
          "internalType": "uint64",
          "name": "decryptedInput",
          "type": "uint64"
        }
      ],
      "name": "callbackCounter",
      "outputs": [
        {
          "internalType": "uint64",
          "name": "",
          "type": "uint64"
        }
      ],
      "stateMutability": "nonpayable",
      "type": "function"
    },
    {
      "inputs": [],
      "name": "desencryptedIsOrganicValue",
      "outputs": [
        {
          "internalType": "uint64",
          "name": "",
          "type": "uint64"
        }
      ],
      "stateMutability": "view",
      "type": "function"
    },
    {
      "inputs": [],
      "name": "getDecryptedIsOrganic",
      "outputs": [
        {
          "internalType": "uint64",
          "name": "",
          "type": "uint64"
        }
      ],
      "stateMutability": "view",
      "type": "function"
    },
    {
      "inputs": [
        {
          "internalType": "string",
          "name": "name",
          "type": "string"
        }
      ],
      "name": "getWine",
      "outputs": [
        {
          "internalType": "string",
          "name": "winerie",
          "type": "string"
        },
        {
          "internalType": "euint128",
          "name": "copper",
          "type": "uint256"
        },
        {
          "internalType": "euint128",
          "name": "lead",
          "type": "uint256"
        },
        {
          "internalType": "euint128",
          "name": "cadmium",
          "type": "uint256"
        },
        {
          "internalType": "euint128",
          "name": "arsenic",
          "type": "uint256"
        },
        {
          "internalType": "euint128",
          "name": "cinc",
          "type": "uint256"
        },
        {
          "internalType": "ebool",
          "name": "isOrganic",
          "type": "uint256"
        },
        {
          "internalType": "string",
          "name": "publicData",
          "type": "string"
        }
      ],
      "stateMutability": "view",
      "type": "function"
    },
    {
      "inputs": [
        {
          "internalType": "string",
          "name": "name",
          "type": "string"
        }
      ],
      "name": "requestDecryption",
      "outputs": [],
      "stateMutability": "nonpayable",
      "type": "function"
    }
  ],
  "bytecode": "0x608060405234610192575f6060610014610196565b828152826020820152826040820152015261002d610196565b606073fee8407e2f5e3ee68ad77cae98c434e637f516e59182815273687408ab54661ba0b4aef3a44156c616c6955e0780602083015273fb03be574d14c256d56f09a198b586bdfc0a9de291826040820152739d6891a6240d6130c54ae243d8005063d05fe14b938491015260018060a01b0319937fed8d60e34876f751cc8b014c560745351147d9de11b9347c854e881b128ea60090858254161790557fed8d60e34876f751cc8b014c560745351147d9de11b9347c854e881b128ea60190848254161790557fed8d60e34876f751cc8b014c560745351147d9de11b9347c854e881b128ea60290838254161790557fed8d60e34876f751cc8b014c560745351147d9de11b9347c854e881b128ea60390828254161790557333347831500f1e73f0cccbb95c9f86b94d7b11237f93ab6e17f2c461cce6ea5d4ec117e51dda77a64affc2b2c05f8cd440def0e7009182541617905560405161123090816101ca8239f35b5f80fd5b60405190608082016001600160401b038111838210176101b557604052565b634e487b7160e01b5f52604160045260245ffdfe6080806040526004361015610012575f80fd5b5f905f3560e01c9081638f166c3314610d60575080638f9c719714610ceb578063940eaee214610c15578063aafb963914610299578063afcd1fb2146102725763e43ad5db14610060575f80fd5b346101fa576020806003193601126101fa5767ffffffffffffffff6004358181116101fa57610093903690600401610e00565b6040519160408301908382109082111761025e576040526001825260086100cf8480850193813686378160405193828580945193849201610e1e565b8101600b81520301902001549082511561024a57526064420190814211610236576001600160a01b03807fed8d60e34876f751cc8b014c560745351147d9de11b9347c854e881b128ea6005416803b156101fa575f604051809263155f840160e21b8252876004830152818381610149602482018a6111d0565b03925af1801561022b57610210575b5083916101a8917f93ab6e17f2c461cce6ea5d4ec117e51dda77a64affc2b2c05f8cd440def0e70054169086604051809681958294634c0d927760e01b845260a0600485015260a48401906111d0565b90638f9c719760e01b6024840152836044840152606483015282608483015203925af18015610205576101d9578280f35b813d83116101fe575b6101ec8183610d98565b810103126101fa575f808280f35b5f80fd5b503d6101e2565b6040513d85823e3d90fd5b6101a8919550916102218593610d84565b5f95915091610158565b6040513d5f823e3d90fd5b634e487b7160e01b5f52601160045260245ffd5b634e487b7160e01b5f52603260045260245ffd5b634e487b7160e01b5f52604160045260245ffd5b346101fa575f3660031901126101fa57602067ffffffffffffffff600a5416604051908152f35b346101fa576101403660031901126101fa5760043567ffffffffffffffff81116101fa576102cb903690600401610e00565b60243567ffffffffffffffff81116101fa576102eb903690600401610e00565b906101043567ffffffffffffffff81116101fa5761030d903690600401610e00565b91610124359267ffffffffffffffff84116101fa57366023850112156101fa5783600401359167ffffffffffffffff83116101fa57602485019460248436920101116101fa5761035e368487610dba565b61036a90604435610f3e565b94610376368583610dba565b61038290606435610f3e565b9361038e368284610dba565b61039a90608435610f3e565b916103a6368383610dba565b6103b29060a435610f3e565b906103be368483610dba565b6103ca9060c435610f3e565b9236906103d692610dba565b6103e29060e435610f3e565b926103ec89611049565b966103f681611049565b6103ff83611049565b61040885611049565b9061041287611049565b9161041c89611049565b935f80516020611204833981519152546001600160a01b03169c6040519d8e928392633b1015f760e21b845260048401526024830152604482015f90525a925f606492602095f19b8c1561022b575f9c610be0575b5060209060646001600160a01b035f805160206112048339815191525416935f6040519586948593633b1015f760e21b8552600485015260248401528160448401525af1801561022b575f90610bad575b6020915060646001600160a01b035f8051602061120483398151915254169c5f6040519e8f948593633b1015f760e21b8552600485015260248401528160448401525af1998a1561022b575f9a610b78575b5060209060646001600160a01b035f8051602061120483398151915254169b5f6040519d8e948593633b1015f760e21b8552600485015260248401528160448401525af198891561022b575f99610b43575b5060209060646001600160a01b035f8051602061120483398151915254169a5f6040519c8d948593633b1015f760e21b8552600485015260248401528160448401525af197881561022b575f98610b0e575b5060205f9860246001600160a01b035f805160206112048339815191525416916040519b8c9384926309c00ffd60e11b845260048401525af197881561022b575f98610ada575b506106098a611160565b61061281611160565b61061b82611160565b61062483611160565b61062d84611160565b61063685611160565b61063f88611160565b604051998a61014081011067ffffffffffffffff6101408d01111761025e576101408b01604052898b528660208c015260408b015260608a0152608089015260a088015260c087015260e0860152826101008601528161012086015260405160208186516106b08183858b01610e1e565b8101600b815203019020855180519067ffffffffffffffff821161025e5781906106da8454610e64565b601f8111610a8d575b50602090601f8311600114610a25575f92610a1a575b50508160011b915f199060031b1c19161781555b602086015180519067ffffffffffffffff821161025e576107316001840154610e64565b601f81116109d6575b50602090601f831160011461096457918061012094926009945f92610959575b50508160011b915f199060031b1c19161760018201555b60408801516002820155606088015160038201556080880151600482015560a0880151600582015560c0880151600682015560e0880151600782015561010088015160088201550195015194855167ffffffffffffffff811161025e576107d88254610e64565b601f8111610914575b506020601f8211600114610882579261087294928261085f936108519998967fa0cde485b930f6d672f0e4bdd57b508678916a3bd1ba7e5170309f034c03887a9b5f92610877575b50508160011b915f199060031b1c19161790555b604051968796608088526080880190610e3f565b908682036020880152610e3f565b9160408501528382036060850152610e3f565b0390a1005b015190508b80610829565b601f19821697835f5260205f20985f5b8181106108fc5750837fa0cde485b930f6d672f0e4bdd57b508678916a3bd1ba7e5170309f034c03887a9a6108519a99979461087299979461085f97600195106108e4575b505050811b01905561083d565b01515f1960f88460031b161c191690558b80806108d7565b838301518b556001909a019960209384019301610892565b825f5260205f20601f830160051c8101916020841061094f575b601f0160051c01905b81811061094457506107e1565b5f8155600101610937565b909150819061092e565b015190508a8061075a565b90600184015f5260205f20915f5b601f19851681106109be575092610120949260019260099583601f198116106109a6575b505050811b016001820155610771565b01515f1960f88460031b161c191690558a8080610996565b91926020600181928685015181550194019201610972565b600184015f5260205f20601f840160051c810160208510610a13575b601f830160051c82018110610a0857505061073a565b5f81556001016109f2565b50806109f2565b0151905088806106f9565b9250835f5260205f20905f935b601f1984168510610a72576001945083601f19811610610a5a575b505050811b01815561070d565b01515f1960f88460031b161c19169055888080610a4d565b81810151835560209485019460019093019290910190610a32565b909150835f5260205f20601f840160051c810160208510610ad3575b90849392915b601f830160051c82018110610ac55750506106e3565b5f8155859450600101610aaf565b5080610aa9565b9097506020813d602011610b06575b81610af660209383610d98565b810103126101fa5751968a6105ff565b3d9150610ae9565b97506020883d602011610b3b575b81610b2960209383610d98565b810103126101fa5796519660206105b8565b3d9150610b1c565b9098506020813d602011610b70575b81610b5f60209383610d98565b810103126101fa5751976020610566565b3d9150610b52565b9099506020813d602011610ba5575b81610b9460209383610d98565b810103126101fa5751986020610514565b3d9150610b87565b506020813d602011610bd8575b81610bc760209383610d98565b810103126101fa57602090516104c2565b3d9150610bba565b909b506020813d602011610c0d575b81610bfc60209383610d98565b810103126101fa57519a6020610471565b3d9150610bef565b346101fa5760203660031901126101fa5760043567ffffffffffffffff81116101fa57610c616020610c4e610cbb933690600401610e00565b8160405193828580945193849201610e1e565b8101600b815203019020610ce76002820154600383015460048401546005850154600686015490600887015492610ca66009610c9f60018b01610e9c565b9901610e9c565b94604051998a99610100808c528b0190610e3f565b9660208a015260408901526060880152608087015260a086015260c085015283820360e0850152610e3f565b0390f35b346101fa5760403660031901126101fa5760243567ffffffffffffffff81168091036101fa576001600160a01b037f93ab6e17f2c461cce6ea5d4ec117e51dda77a64affc2b2c05f8cd440def0e700541633036101fa578060209167ffffffffffffffff19600a541617600a55604051908152f35b346101fa575f3660031901126101fa5760209067ffffffffffffffff600a54168152f35b67ffffffffffffffff811161025e57604052565b90601f8019910116810190811067ffffffffffffffff82111761025e57604052565b92919267ffffffffffffffff821161025e5760405191610de4601f8201601f191660200184610d98565b8294818452818301116101fa578281602093845f960137010152565b9080601f830112156101fa57816020610e1b93359101610dba565b90565b5f5b838110610e2f5750505f910152565b8181015183820152602001610e20565b90602091610e5881518092818552858086019101610e1e565b601f01601f1916010190565b90600182811c92168015610e92575b6020831014610e7e57565b634e487b7160e01b5f52602260045260245ffd5b91607f1691610e73565b9060405191825f8254610eae81610e64565b908184526020946001916001811690815f14610f1c5750600114610ede575b505050610edc92500383610d98565b565b5f90815285812095935091905b818310610f04575050610edc93508201015f8080610ecd565b85548884018501529485019487945091830191610eeb565b92505050610edc94925060ff191682840152151560051b8201015f8080610ecd565b6020610f8f926001600160a01b0392835f805160206112048339815191525416905f6040518097819582946302e817ff60e41b84526004840152336024840152608060448401526084830190610e3f565b600360f91b606483015203925af191821561022b575f92611015575b507fed8d60e34876f751cc8b014c560745351147d9de11b9347c854e881b128ea6005416803b156101fa576040516346ce4e4960e11b815260048101839052336024820152905f908290604490829084905af1801561022b5761100c575090565b610e1b90610d84565b9091506020813d602011611041575b8161103160209383610d98565b810103126101fa5751905f610fab565b3d9150611024565b80156110d8575b60205f9160646001600160a01b035f805160206112048339815191525416916040519485938492631f31e28560e11b84526004840152836024840152600160f81b60448401525af190811561022b575f916110a9575090565b90506020813d6020116110d0575b816110c460209383610d98565b810103126101fa575190565b3d91506110b7565b505f60206001600160a01b035f805160206112048339815191525416604460405180948193631ce2e8d760e31b8352816004840152600360f91b60248401525af190811561022b575f9161112d575b50611050565b90506020813d602011611158575b8161114860209383610d98565b810103126101fa57516020611127565b3d915061113b565b6001600160a01b037fed8d60e34876f751cc8b014c560745351147d9de11b9347c854e881b128ea6005416803b156101fa57604051631974142760e21b815260048101929092523060248301525f908290604490829084905af1801561022b576111c75750565b610edc90610d84565b9081518082526020808093019301915f5b8281106111ef575050505090565b8351855293810193928101926001016111e156feed8d60e34876f751cc8b014c560745351147d9de11b9347c854e881b128ea601a164736f6c6343000818000a",
  "linkReferences": {},
  "deployedLinkReferences": {}
}